:020000040C00EE
:100000000008002001020008CF030008DB030008FD
:10001000E7030008F3030008FF03000800000000E6
:100020000000000000000000000000000B040008B9
:100030001704000800000000230400082F04000833
:100040003B04000847040008530400085F0400084C
:100050006B04000877040008810400088B04000882
:1000600095040008000000000000000000000000EF
:100070009F04000800000000A9040008B304000861
:10008000BD040008C7040008D1040008DB04000810
:10009000E5040008EF040008F9040008030500085F
:1000A0000D05000817050008210500082B050008AC
:1000B000350500083F0500084905000853050008FC
:1000C0005D05000867050008710500087B0500084C
:1000D000850500088F05000899050008A30500089C
:1000E000AD050008B7050008C1050008CB050008EC
:1000F000D5050008DF050008E9050008F30500083C
:10010000FD05000807060008110600081B06000888
:10011000250600082F0600083906000843060008D7
:100120004D06000857060008610600086B06000827
:10013000750600087F060008890600089306000877
:100140009D060008A7060008B1060008BB060008C7
:10015000C5060008CF060008D9060008E306000817
:10016000000000000000000000000000000000008F
:10017000ED060008F7060008010700080B07000855
:10018000150700081F0700082907000833070008A3
:100190003D07000847070008510700085B070008F3
:1001A000650700086F070008790700088307000843
:1001B0008D07000897070008A1070008AB07000893
:1001C000B5070008BF070008C9070008D3070008E3
:1001D000DD070008E7070008F1070008000000003D
:1001E000FB070008050800080F08000819080008A8
:1001F00023080008000000002D080008000000008F
:10020000DFF80CD0034880470348804700F006B869
:1002100000080020710A0008F1020008254826495C
:10022000264A002A0ED0042A01D24FF004024FEAD7
:10023000920203680B60013A04D000F1040001F15E
:100240000401F6E71E481F491F4A002A0ED0042A5F
:1002500001D24FF004024FEA920203680B60013AA8
:1002600004D000F1040001F10401F6E71748184931
:1002700000290DD0042901D24FF004014FEA910169
:100280004FF000020260013902D000F10400F9E7EA
:100290001048114908601148804711488047DFF82D
:1002A00044D04FF000004FF000010F488047DFF8C6
:1002B0003CF0000020AE000C70D500209C02000035
:1002C000BCB0000C0CD8002000000000000800208A
:1002D00064CD00000000000808ED00E0F50900080A
:1002E000810300080008002009AA00086DA9000881
:1002F00000BF704708B500F011FE1D4B18601B6869
:100300001C4B1B68DBB21C4A13601368082B17D008
:1003100004D8022B0CD0042B0ED005E0202B17D0D4
:10032000802B19D0102B0FD00122124B9A6016E0AF
:100330000122104B9A6012E001220E4B9A600EE0EF
:1003400001220C4B9A600AE001220A4B9A6006E0F7
:100350000122084B9A6002E00122064B9A60074B8B
:100360004FF400121A634FF460525A6308BD00BF85
:1003700030D40020004400502CD40020004600500F
:1003800070B50E4E0E4B9E1BB610002E07DD0B4DAA
:10039000002455F8043B98470134B442F9D1094E82
:1003A000094B9E1BB610002E07DD064D002455F8A4
:1003B000043B98470134B442F9D170BD38AB000812
:1003C00038AB000838AB000838AB0008FEE7DFF8B0
:1003D0006C0400B5804700BDFEE7DFF8640400B59B
:1003E000804700BDFEE7DFF85C0400B5804700BD34
:1003F000FEE7DFF8540400B5804700BDFEE7DFF8F4
:100400004C0400B5804700BDFEE7DFF8440400B5AA
:10041000804700BDFEE7DFF83C0400B5804700BD23
:10042000FEE7DFF8340400B5804700BDFEE7DFF8E3
:100430002C0400B5804700BDFEE7DFF8240400B5BA
:10044000804700BDFEE7DFF81C0400B5804700BD13
:10045000FEE7DFF8140400B5804700BDFEE7DFF8D3
:100460000C0400B5804700BDFEE7DFF8040400B5CA
:10047000804700BDFEE7FF4800B5804700BDFEE7AE
:10048000FD4800B5804700BDFEE7FC4800B5804749
:1004900000BDFEE7FA4800B5804700BDFEE7F94819
:1004A00000B5804700BDFEE7F74800B5804700BDB6
:1004B000FEE7F64800B5804700BDFEE7F44800B50A
:1004C000804700BDFEE7F34800B5804700BDFEE76A
:1004D000F14800B5804700BDFEE7F04800B5804711
:1004E00000BDFEE7EE4800B5804700BDFEE7ED48E1
:1004F00000B5804700BDFEE7EB4800B5804700BD72
:10050000FEE7EA4800B5804700BDFEE7E84800B5D1
:10051000804700BDFEE7E74800B5804700BDFEE725
:10052000E54800B5804700BDFEE7E44800B58047D8
:1005300000BDFEE7E24800B5804700BDFEE7E148A8
:1005400000B5804700BDFEE7DF4800B5804700BD2D
:10055000FEE7DE4800B5804700BDFEE7DC4800B599
:10056000804700BDFEE7DB4800B5804700BDFEE7E1
:10057000D94800B5804700BDFEE7D84800B58047A0
:1005800000BDFEE7D64800B5804700BDFEE7D54870
:1005900000B5804700BDFEE7D34800B5804700BDE9
:1005A000FEE7D24800B5804700BDFEE7D04800B561
:1005B000804700BDFEE7CF4800B5804700BDFEE79D
:1005C000CD4800B5804700BDFEE7CC4800B5804768
:1005D00000BDFEE7CA4800B5804700BDFEE7C94838
:1005E00000B5804700BDFEE7C74800B5804700BDA5
:1005F000FEE7C64800B5804700BDFEE7C44800B529
:10060000804700BDFEE7C34800B5804700BDFEE758
:10061000C14800B5804700BDFEE7C04800B580472F
:1006200000BDFEE7BE4800B5804700BDFEE7BD48FF
:1006300000B5804700BDFEE7BB4800B5804700BD60
:10064000FEE7BA4800B5804700BDFEE7B84800B5F0
:10065000804700BDFEE7B74800B5804700BDFEE714
:10066000B54800B5804700BDFEE7B44800B58047F7
:1006700000BDFEE7B24800B5804700BDFEE7B148C7
:1006800000B5804700BDFEE7AF4800B5804700BD1C
:10069000FEE7AE4800B5804700BDFEE7AC4800B5B8
:1006A000804700BDFEE7AB4800B5804700BDFEE7D0
:1006B000A94800B5804700BDFEE7A84800B58047BF
:1006C00000BDFEE7A64800B5804700BDFEE7A5488F
:1006D00000B5804700BDFEE7A34800B5804700BDD8
:1006E000FEE7A24800B5804700BDFEE7A04800B580
:1006F000804700BDFEE79F4800B5804700BDFEE78C
:100700009D4800B5804700BDFEE79C4800B5804786
:1007100000BDFEE79A4800B5804700BDFEE7994856
:1007200000B5804700BDFEE7974800B5804700BD93
:10073000FEE7964800B5804700BDFEE7944800B547
:10074000804700BDFEE7934800B5804700BDFEE747
:10075000914800B5804700BDFEE7904800B580474E
:1007600000BDFEE78E4800B5804700BDFEE78D481E
:1007700000B5804700BDFEE78B4800B5804700BD4F
:10078000FEE78A4800B5804700BDFEE7884800B50F
:10079000804700BDFEE7874800B5804700BDFEE703
:1007A000854800B5804700BDFEE7844800B5804716
:1007B00000BDFEE7824800B5804700BDFEE78148E6
:1007C00000B5804700BDFEE77F4800B5804700BD0B
:1007D000FEE77E4800B5804700BDFEE77C4800B5D7
:1007E000804700BDFEE77B4800B5804700BDFEE7BF
:1007F000794800B5804700BDFEE7784800B58047DE
:1008000000BDFEE7764800B5804700BDFEE77548AD
:1008100000B5804700BDFEE7734800B5804700BDC6
:10082000FEE7724800B5804700BDFEE7704800B59E
:10083000804700BD4FF0010070470000E5A80008A8
:10084000D9A80008DDA80008D5A80008E1A800087C
:10085000911D000815040008311E0008A11E0008A3
:10086000FD9D000845040008510400085D040008CF
:1008700069040008750400087F0400088904000862
:10088000930400089D040008A7040008B1040008B0
:10089000BB040008C5040008CF040008D904000800
:1008A000E3040008ED040008F7040008010500084F
:1008B0000B050008150500081F050008290500089C
:1008C000330500083D0500084705000851050008EC
:1008D0005B050008650500086F050008790500083C
:1008E000830500088D05000897050008A10500088C
:1008F000AB050008B5050008BF050008C9050008DC
:10090000D3050008DD050008E7050008F10500082B
:10091000FB050008050600080F0600081906000878
:10092000230600082D0600083706000841060008C7
:100930004B060008550600085F0600086906000817
:10094000730600087D060008870600089106000867
:100950009B060008A5060008AF060008B9060008B7
:10096000C3060008CD060008D7060008E106000807
:10097000EB060008F506000889A30008B9A30008E3
:10098000F5A3000825A4000855A4000891A40008B8
:100990003B070008F59C0008E59C00085907000883
:1009A000630700086D070008770700088107000843
:1009B0008B070008950700089F070008A907000893
:1009C000B3070008BD070008C7070008D1070008E3
:1009D000DB070008E5070008EF070008F907000833
:1009E000030800080D08000817080008E54400087F
:1009F0002B080008194BDB68B3F5803F27D1184B53
:100A00001B6813F0040F28D010B415488168C1F397
:100A100003614C1C8368C3F3062301338268C2F36D
:100A200006420132C16811F0010F0C49C86814BFB9
:100A30000C490D49B1FBF4F103FB01F3B3FBF2F2F6
:100A4000C3B20133B2FBF3F2084B1A6003E0054A6C
:100A5000064B1A6070475DF8044B70470046005023
:100A60001047005000366E01001BB70070D5002003
:100A700008B5A44BD3F8882042F47002C3F888204C
:100A80005A6922F008025A619F4A536823F0010311
:100A900053609E4941F214028B5823F00F0343F038
:100AA00003038B509A4B9A6A42F003029A629A6A45
:100AB00042F410229A62974B88229A615A6F22F46C
:100AC00040325A67FFF7B6FE002800F0D480924B00
:100AD0005A68924B134033B18F4A536823F48033E2
:100AE00023F0020353608E4B5B6813F0300F31D05C
:100AF0008B4B5A6822F0F0025A605A6842F4003276
:100B00005A601033DA6822F00102DA605A6822F47F
:100B100000325A60834B844A5A6000229A60052250
:100B20001A607D4A1946136803F46073B3F5607F59
:100B300003D08B68B3F5FA7FF5D27A4A136823F0B5
:100B400001031360744B1B6803F46073B3F5607F9B
:100B500040F09180704B1B6813F0040F40F08B80C5
:100B60006B4BDB6813F4803F04D0694AD36823F4ED
:100B70008033D360684B5A6842F001025A605A6869
:100B800042F010025A60694A9A605A6842F0400284
:100B90005A605A6822F010025A605A6842F4802261
:100BA0005A60604B604A5A6000229A6005221A60BF
:100BB000594A1946136813F0040F03D18B68B3F533
:100BC000FA7FF7D2574A136823F001031360524BA0
:100BD0001B6813F0040F4ED04F494B6823F00103FC
:100BE0004B604B4B00221A615A611A62D86840F47C
:100BF0008030D8604B6823F040034B60494B40F293
:100C0000455159609A6005221A601A469368632B11
:100C1000FCD8444B1A6822F001021A6044493E4A4B
:100C2000916040F61B425A6000229A6005221A60C9
:100C30001A469368632BFCD83A4B1A6822F00102DB
:100C40001A603C49344A916041F223325A600022D2
:100C50009A6005221A601A469368632BFCD8314AC1
:100C6000136823F001031360334A2B4B9A6005226B
:100C7000A3F5B663DA60FFF7BDFEFFF7DBFD0028E2
:100C800000F08880244B5A69244B134033B1224A28
:100C9000536923F4803323F002035361204B5B68D4
:100CA00013F0300F56D01C4B5A681C4B134033B115
:100CB000194A536823F4803323F002035360184B1E
:100CC0005A6822F0F0025A605A6842F400325A60C0
:100CD000114A536823F400335360124B124A5A608E
:100CE00000229A6005221A600B4A1946136803F421
:100CF0006073B3F5607F21D08B68B3F5FA7FF5D2CE
:100D00001CE000BF00ED00E0008000500010005823
:100D100000460050008002481047005002000100C9
:100D20000047005010E000E0A34B4C00014F1301BE
:100D3000014F0701014F0401014F0301164A1368D7
:100D400023F001031360154B1B6803F46073B3F5C4
:100D5000607F1FD1114B5A6942F001025A615A69F2
:100D600042F010025A614FF4F8525A6103210C4AC2
:100D700091615A6942F040025A615A6922F01002A8
:100D80005A615A6942F480225A611A46136913F073
:100D9000040FFBD008BD00BF10E000E0104700507A
:100DA00000460050F0B401F0FC0303441E6901F05A
:100DB0000304E400F825A54026EA05051D61466FF9
:100DC0004F000325BD4026EA05054567174DA8429B
:100DD00003D005F58075A84207D1056E012606FAF5
:100DE00001F125EA0101016618E092F90050002D99
:100DF00014DA55688D404560CD0800EB8500066C1F
:100E000001F00701890007258D4026EA05050564E4
:100E1000056C167A06FA01F1294301641969127802
:100E2000A2400A431A61F0BC704700BF008E02481E
:100E300008B500F0F9F808BD704700BF1B4B5B68B0
:100E400013F0010F2FD110B5044600F00DF908B9C9
:100E500000F0EAF8208A00F033FD154AD2F8C430D9
:100E600013F4006FFAD12268104B1A62104AD2F8BC
:100E7000C43013F4805FFAD162680C4B5A620C4A9A
:100E8000D2F8C43013F4007FFAD1A268074B9A61FC
:100E9000074AD2F8C43013F4806FFAD1E268034BEA
:100EA000DA61002010BD0020704700BF004A0050EA
:100EB00000400050054AD2F8C43013F4804FFAD1F4
:100EC000034A136918431061704700BF0040005087
:100ED000004A0050054AD2F8C43013F4807FFAD19A
:100EE000034A536818435060704700BF00400050E9
:100EF000004A0050024A936818439060704700BF50
:100F000074400050014B5868704700BF7440005057
:100F1000014BD860704700BF74400050024B186905
:100F200000F47060704700BF00400050024A9368B0
:100F300023EA00009060704760410050014B586800
:100F4000704700BF60410050014BD860704700BF40
:100F500060410050024A536918435061704700BF16
:100F600074400050030F03EB430320F07040024A2B
:100F700042F82300704700BF10440050030F03EBFA
:100F8000430320F07040024A42F82300704700BF3C
:100F900014440050034B5B6903F00103024A1068DC
:100FA000D84070470046005070D50020034A536A6D
:100FB00023F4403318435062704700BF004600508E
:100FC000064AD2F8C43013F0080FFAD1044AD368A5
:100FD00023F040031843D060704700BF004000502A
:100FE00000430050034A536A013823F0FF030343D0
:100FF0005362704700460050014B5860704700BF75
:1010000000460050064B5B69C3F3072300EE103A1D
:10101000B8EE400ADFED037A20EE270A704700BFE2
:1010200000420050EC51B83C0D4B1B6813F0010F0F
:1010300007D101220A4B5A601A46136813F0010FB8
:10104000FBD0084B1B6813F4007F08D04FF40072EC
:10105000044B9A601A46136813F4007FFBD1704763
:101060000042005000440050064B1B6813F0010F73
:1010700006D0054B186880F40070C0F3402070471C
:1010800000207047004200500044005010F0010F53
:101090000DD10023013320FA03F212F0010F03D126
:1010A000202BF7D101207047202B01D105E0002330
:1010B000034A42F82310002070470120704700BF08
:1010C00038D4002010B50E4B596811F0010F07D12C
:1010D00001231C4621FA03F212F0010F0CD001E0AB
:1010E00000242346074A52F8233003B198470123CE
:1010F000A340034AD36010BD0133202BE9D110BDBA
:101100007440005038D40020F0B40B684C68B3FB36
:10111000F4F204FB1232002A4CD1B3FBF4F419238D
:10112000B4FBF3F203FB124252B9B4FBF3F2551EC7
:10113000B5F5007F04D23F2A07D912F0070F06D079
:10114000013B072BECD101203DE0002600E0012609
:10115000072B31D95C1E0D8905FB04F41B4DA5FB43
:101160000454A409022C29D91B1B5D1E012D27D96B
:101170004F89BD4226D3056845F040050560013A18
:1011800002F03F0242EAC632498901398901C9B2F7
:101190000A43611E090201F470610A43023B1B030A
:1011A00003F4E0431A430261036823F04003036041
:1011B000002008E0012006E0012004E0012002E018
:1011C000012000E00120F0BC704700BFD34D621049
:1011D000D0F8C43113F4407FFAD1120442F0020275
:1011E000013142EA0161C0F8C411704708B501231A
:1011F00003600248FFF7B6FE08BD00BF10000010F4
:1012000010B504460548FFF7B9FE236823F0010333
:101210002360236813F0020FFBD110BD10000010F3
:1012200038B505461446FFF7EBFFFFF7B3FEB0FBFA
:10123000F4F3C3F58063002B38BF002340F2FF3284
:10124000934228BF1346EA6822F4434222F0FF0289
:10125000EA60EA6842F480421A43EA60C3F58063B8
:10126000B0FBF3F038BD00BF037E012B17D103683C
:101270002022DA6101680B68027B120602F07062BC
:1012800023F0706313430B60036802691A610368FB
:1012900042695A610368034ADA61002070470320FB
:1012A000704700BF4000280038B5026802F138439B
:1012B000A3F5A833916821F47F4191600468A16887
:1012C0009D0AC3F344131A0242EA45330B43A36059
:1012D000037E012B30D803682022DA61C37913F032
:1012E000200F0ED1426802F0604343EA8243026855
:1012F0009361826802F0604343EA82430268D360EC
:1013000005E0036842689A6103688268DA60037ED8
:10131000012B0AD10446FFF7A7FF23684FF00062B4
:10132000DA612368054ADA6138BD03684FF4006268
:10133000DA610368024ADA6138BD00BFC0002006E6
:101340004006A0000368DA69D96912F4006F11D170
:1013500011F0040F10D11A6902615A694261D9690A
:10136000DA69C2F3C00211F0040F07D0002AF2D1EB
:10137000002070470320704702207047002070470C
:10138000B1F5800F03D0036819430160704783698A
:1013900043F4800383617047F0B490F8243013B3B2
:1013A00000252A464FF0004744F2F45653010169E4
:1013B000CF50016919444E600169194484692C4475
:1013C0008C60013290F82410914214BF144600241E
:1013D00001690B4401EB4411D96005F2F45590F812
:1013E00024309342E2D80268016941F20C03D150E3
:1013F000002380F82730F0BC704700BF70B490F82D
:101400002530E3B100252B46124E5A0141698E501A
:1014100041691144C4692C448C60013390F8251053
:10142000994214BF1C46002441690A4401EB44114F
:10143000D16005F2F45590F825209A42E5D802686B
:10144000416941F21003D150002380F8263070BC6E
:10145000704700BF0000103010B50446036803F564
:1014600080531A6842F001021A60016801F5805247
:10147000136813F0010FFBD14FF480630B602368F6
:1014800080229A612268144941F21803D1502368DE
:1014900003F58053114A1A602046FFF77DFF20466E
:1014A000FFF7ACFF22684FF0FF3141F21403D15037
:1014B00022686FF07C43C2F810312268C2F80C3108
:1014C00023686FF0C022C3F8002223684FF4027231
:1014D000DA630023236210BD040020028020010291
:1014E00090F8273002695B01D058002808DB00F42F
:1014F0000343B3F5407F05D1C0F30D400438704776
:10150000002070474FF0FF30704700BF194B1A6939
:1015100002F00102184B1B6893405B080168174AF0
:10152000934203D808230B6100207047144A93426A
:1015300003D80C230B6100207047124A934202D853
:10154000002008617047104A934203D804230B61BE
:10155000002070470D4A934203D810230B610020EE
:1015600070470B4A93429DBF14230B610020022059
:10157000704700BF0046005070D50020C00E160214
:101580000087930300E1F50580D1F00800C2EB0B62
:1015900080B2E60E08B50420FFF72EFD0148FFF7E4
:1015A000EDFC08BD0400002038B50446FFF7F2FF4B
:1015B0002046FFF7ABFF05462046FFF74DFFA26828
:1015C000E1682368196423685A64284638BD00BF5F
:1015D00030B405682C6904F03C0444F0010444EA8A
:1015E000821242EAC121296100684FF6FF72016947
:1015F00011F0010F03D142691A80002002E0013A84
:10160000F5D1022030BC704710B4046863610468EF
:10161000236903F03C0343F0030343EA821242EAE6
:10162000C121216101684FF6FF730A6912F0010FB1
:1016300003D0013BF9D1022000E000205DF8044B0B
:10164000704700BF0268D36B23EA1143D363C1F331
:101650000E0344F24502114218BF43F4803342F2B4
:10166000BA72134218BF43F40043006841F21C01F0
:101670004258134343507047036841F214029A588A
:1016800012F4803F18BF41F4803141F214029A589D
:1016900012F4004F18BF41F40041C1F3100141F2B0
:1016A00014029950704700BF026841F21403D358E6
:1016B000906B00F40270C3F30A0343EA00407047E2
:1016C00090F827305B010169CA5842F00042CA50C5
:1016D00090F827300133DBB280F8273090F82420CF
:1016E0009A4204BF002380F82730704790F82630D4
:1016F00080F828305B014169CA5842F0004242F448
:101700004002CA5090F826300133DBB280F8263010
:1017100090F825209A4204BF002380F82630002349
:101720000362704770B582B004460D4600224FF444
:101730000043FFF769FF03465BB9002620462946B0
:1017400032460DF10603FFF743FFBDF90630002BCB
:10175000F4DB02B070BD00BF70B582B006460D4626
:101760001446022201ABFFF733FF00283AD130467E
:10177000294603220DF10603FFF72AFFA0BBBDF89F
:101780000430222B32D1BDF8063023F00F039BB278
:10179000B3F5AB5F1ED0032329E06388B3F5804F18
:1017A00014BF00234FF40053A288B2F5006F04BFAA
:1017B00043F480739BB2A2790AB143F48053E27977
:1017C0000AB143F48043304629460022FFF71CFF4C
:1017D00003460CE030462946FFF7A4FF03460028E5
:1017E000DBD004E0042302E0042300E003231846D6
:1017F00002B070BD00B583B001220DF10603FFF702
:10180000E7FEBDF80600C0F3800003B05DF804FBFE
:1018100000B583B01E220DF10603FFF7D9FEBDF817
:10182000063003F00303012B14BF4FF48040002067
:1018300003B05DF804FB00BF00B583B01E220DF1BC
:101840000603FFF7C5FEBDF8063003F004039BB2A4
:10185000002B14BF4FF40060002003B05DF804FBC0
:1018600010B4436F490003248C4023EA0403436708
:10187000436F8A40134343675DF8044B704700BFD2
:10188000054AD2F8C43013F4807FFAD1034A536872
:1018900043F001035360704700400050004A00507D
:1018A000054AD2F8C43013F4807FFAD1034A536852
:1018B00023F001035360704700400050004A00507D
:1018C000064AD2F8C43013F4807FFAD1044A536830
:1018D0009BB243EA00405060704700BF0040005098
:1018E000004A0050094AD2F8C43013F4006FFAD10C
:1018F0000268074B1A62054AD2F8C43013F4805FBD
:10190000FAD14268024B5A62704700BF0040005053
:10191000004A005082B0124B1A6A00925B6A9DF82E
:10192000002002F03F0202609DF8012002F03F0219
:1019300042609DF8022002F01F0282609DF80320A1
:1019400002F01F020132C260C3F3032202611A0CCB
:10195000A2F26C72426103F00703836102B0704728
:10196000004A0050094AD2F8C43013F4007FFAD17B
:101970000268074B9A61054AD2F8C43013F4806FAD
:10198000FAD14268024BDA61704700BF0040005054
:10199000004A005082B0114B9A690092DB699DF8B1
:1019A000002002F03F0202609DF8012002F03F0299
:1019B00042609DF8022002F01F0282609DF8032021
:1019C00002F01F020132C260C3F3032202611B0C4A
:1019D000A3F26C73436102B0704700BF004A00502D
:1019E00070B505460E4600F087F8F479002C08BF64
:1019F000102428463168224600F0B6F8B379013B3E
:101A00005B0043F4403343F001036408013443EACC
:101A10000423EB633379013B1B0643F481736B634F
:101A200073792BB16A6B013B42EA03436B6305E0B8
:101A30006A6B3379013B42EA03436B634FF4A06363
:101A4000AB634FF0FF33EB6433892B6470BD00BF91
:101A500070B506460C461546FFF79CFAB4EB900F9E
:101A60000AD8032D0AD9304621462A4600F07CF8D0
:101A7000003018BF012070BD012070BD012070BD75
:101A8000D0F8083113F0E06F09D1836B13F0800FA9
:101A9000FBD14FF40053C364C0F880107047C0F806
:101AA00080117047D0F80C3113F0E06F0CBF406D1F
:101AB000D0F81C0180B27047836B13F0800F09D1FE
:101AC000836C13F4007F07D1036C23F00F030364CE
:101AD000002070470220704702207047036C01F419
:101AE000FE3223EA02030364C36B01F0F80123EA28
:101AF0000101C163704700BF10B50446154B984201
:101B000003D003F50073984204D14FF40060FFF74F
:101B100035FA14E0104B984203D003F50073984255
:101B200003D10E48FFF72AFA09E00D4B984203D083
:101B300003F50073984202D10A48FFF71FFA032306
:101B4000E360E36813F0010FFBD0236C23F00F0375
:101B5000236410BD00000340000002488000001014
:101B6000004002480001001063293DD9002A3DD001
:101B70002DE9F04117460C468046FFF70BFA1C4E44
:101B8000A6FB00325209A6FB0436760907FB06F6CF
:101B9000C2EB822440F2FF304FF0010EF4460146C2
:101BA000B4FBF6F39D0AB5F5806F06D2C3F30903C3
:101BB000834202D21846AE468C46A41A0139EFD1B0
:101BC0004CF40043C8F81030D8F81420013F094BFA
:101BD000134043EA87230EF1FF3E43EA0E43C8F861
:101BE00014300020BDE8F0810120704701207047CB
:101BF0001F85EB51EF8000FC30B4D0F8084124F091
:101C0000E064C0F80841D0F80851054C2C4021434D
:101C100041EA026242EA0323C0F8083130BC70474F
:101C2000C0C0FFF830B4D0F80C4124F0E064C0F834
:101C30000C41D0F80C51064C2C4044F08054214308
:101C400041EA026242EA0323C0F80C3130BC70471B
:101C5000C0C0FFEFD0F80C3123F0E063C0F80C31C6
:101C6000D0F80C31090641EA022223F47C531343D5
:101C7000C0F80C31704700BF10B4D0F808410723FA
:101C80008B4024EA03038A401A43C0F808215DF818
:101C9000044B704710B4D0F80C4107238B4024EA62
:101CA00003038A401A43C0F80C215DF8044B7047C7
:101CB00008B52020FFF7A0F90148FFF75FF908BD3C
:101CC0000200002010B50446FFF7F2FFA268034BA4
:101CD0005A6062681A6122685A6110BD0080005023
:101CE00082B0002301930D4B1B68B3F1FF3F08D076
:101CF0004FF0140383F31188BFF36F8FBFF34F8F3F
:101D0000FEE74FF0140383F31188BFF36F8FBFF327
:101D10004F8F019B002BFCD002B0704774D5002080
:101D200008480068006880F308884FF0000080F3DE
:101D3000148862B661B6BFF34F8FBFF36F8F00DFB9
:101D400000BF000008ED00E0DFF80C00016841F47E
:101D5000700101607047000088ED00E04FF0807373
:101D600040F8043C21F0010140F8081C054B40F804
:101D70000C3C40F8202C6FF0020340F8243C44381F
:101D8000704700BFE11C00080000000000000000D8
:101D9000074B19680868B0E8F04F80F30988BFF373
:101DA0006F8F4FF0000080F311887047AFF3008011
:101DB000FC080020AFF30080AFF30080AFF3008099
:101DC0004FF0140383F31188BFF36F8FBFF34F8F6E
:101DD0000A4A136801331360012B0DD1084B1B68AD
:101DE00013F0FF0F08D04FF0140383F31188BFF3F3
:101DF0006F8FBFF34F8FFEE7704700BF74D5002091
:101E000004ED00E0094B1B6843B94FF0140383F362
:101E10001188BFF36F8FBFF34F8FFEE7013B034A7B
:101E200013600BB983F31188704700BF74D500208D
:101E3000EFF30980BFF36F8F154B1A681EF0100F78
:101E400008BF20ED108A20E9F04F10602DE909004D
:101E50004FF0140080F31188BFF34F8FBFF36F8FE3
:101E600001F03AFB4FF0000080F3118809BC1968BB
:101E70000868B0E8F04F1EF0100F08BFB0EC108AF1
:101E800080F30988BFF36F8F704700BFAFF3008006
:101E9000FC080020AFF30080AFF30080AFF30080B8
:101EA00008B54FF0140383F31188BFF36F8FBFF3AE
:101EB0004F8F01F089F918B14FF08052024B1A6030
:101EC000002383F3118808BD04ED00E0084A0023D5
:101ED000136008490B60084B1B680849A1FB0313FA
:101EE0009B09013B06490B6007231360704700BF45
:101EF00010E000E018E000E070D50020D34D621043
:101F000014E000E03C4B1A683C4B9A4208D14FF079
:101F1000140383F31188BFF36F8FBFF34F8FFEE776
:101F2000354B1A68364B9A4208D14FF0140383F3AD
:101F30001188BFF36F8FBFF34F8FFEE710B582B0EC
:101F4000304B1A78D2B20192FF221A701B78DBB2A2
:101F50008DF803309DF8033003F014032A4A137000
:101F600007222A4B1A609DF8033013F0800F12D01D
:101F7000062300E00B469DF803205200D2B28DF8F4
:101F800003209DF80320591E12F0800FF2D11F4A42
:101F90001360012B08D04FF0140383F31188BFF3B3
:101FA0006F8FBFF34F8FFEE71B0203F4E063174A06
:101FB0001360019BDBB2134A1370154B1A6842F48D
:101FC0007C021A601A6842F07C421A60FFF77EFFBA
:101FD0000024104B1C60FFF7B7FE0F4A136843F054
:101FE00040431360FFF79CFE01F076FAFFF778FE9E
:101FF000204602B010BD00BF00ED00E071C20F41ED
:1020000070C20F4100E400E0000800200408002036
:1020100020ED00E074D5002034EF00E0EFF30583FD
:102020000F2B0FD9104A9B5CDBB2104A12789A42F0
:1020300008D94FF0140383F31188BFF36F8FBFF3F8
:102040004F8FFEE70A4B1B6803F4E063094A1268EE
:10205000934208D94FF0140383F31188BFF36F8FB5
:10206000BFF34F8FFEE77047F0E300E00008002069
:102070000CED00E00408002010B51C2001F02EFF3C
:10208000044620B1002340F8043B00F02FF920461D
:1020900010BD00BF2DE9F843DDF8209040B94FF0A6
:1020A000140383F31188BFF36F8FBFF34F8FFEE7E5
:1020B000064611F07F4F08D04FF0140383F31188C8
:1020C000BFF36F8FBFF34F8FFEE741B94FF014039B
:1020D00083F31188BFF36F8FBFF34F8FFEE79846EE
:1020E00017460C4601F0B0FB58B9B9F1000F08D003
:1020F0004FF0140383F31188BFF36F8FBFF34F8F3B
:10210000FEE701F053F83568B8F1000F04D12C4216
:1021100014BF0123002305E004EA05039C4214BF19
:10212000002301232BB1002F41D025EA04043460A1
:102130003DE0B9F1000F3AD0002F0CBF00214FF065
:102140008071B8F1000F01D041F08061301D214352
:102150004A4601F02FFA01F0C9F838B94FF0805221
:10216000154B1A60BFF34F8FBFF36F8F01F080FCE8
:10217000054610F0007F17D1FFF722FE3568B8F151
:10218000000F04D12C4214BF0123002305E004EA10
:1021900005039C4214BF002301231BB117B125EA9C
:1021A00004043460FFF72EFE25F07F4501E001F0C6
:1021B0009DF82846BDE8F88304ED00E040B94FF0F3
:1021C000140383F31188BFF36F8FBFF34F8FFEE7C4
:1021D00070B5054611F07F4F08D04FF0140383F31C
:1021E0001188BFF36F8FBFF34F8FFEE70C46FFF7E9
:1021F000E7FD2E6826EA04012960FFF703FE30465A
:1022000070BD00BFF8B540B94FF0140383F31188D7
:10221000BFF36F8FBFF34F8FFEE7044611F07F4F80
:1022200008D04FF0140383F31188BFF36F8FBFF30F
:102230004F8FFEE70D4600F10C0600F0B7FF206956
:10224000216829432160864221D000254768016822
:1022500021F07F4211F0806F05D123681A4214BF2C
:102260000123002305E0236813409A4214BF002392
:10227000012343B111F0807F18BF1543216841F05D
:10228000007101F027FA3846BE42DFD100E0002598
:10229000236823EA0503236001F028F82068F8BDCD
:1022A00070B5044600F082FF6368CBB1206904F189
:1022B0000C05A84205D04FF000760BE02069A8423B
:1022C00008D14FF0140383F31188BFF36F8FBFF36E
:1022D0004F8FFEE7314601F0FDF96368002BEDD129
:1022E000204601F09FFE01F001F870BD00F10803E7
:1022F00043604FF0FF328260C360036100230360DC
:10230000704700BF00230361704700BF43684B6004
:102310009A688A609A68516099600861036801331D
:102320000360704730B40D68B5F1FF3F01D1026919
:1023300007E000F1080200E01A4653681C68A54255
:10234000FAD253684B6099608A60516008610368F3
:102350000133036030BC7047036942688168916053
:102360008268416851605A68824204BF92685A602C
:10237000002202611A68013A1A601868704700BFAB
:1023800010B50446FFF71CFDA46BFFF73BFDB4FA44
:1023900084F0400910BD00BF70B504461646856B39
:1023A000026C3AB9036843BB806801F0B3FA0023BA
:1023B000A36029E06EB9406807F094FD6268236C61
:1023C00013446360A268934219D3236863600020BA
:1023D0001AE0C06807F086FD236C5B42E2681A448D
:1023E000E26021688A4202D2A2681344E360022EAE
:1023F00007D145B1013D002006E0002004E00020A7
:1024000002E0002000E000200135A56370BD00BFA0
:10241000026C72B110B5C3681344C3608468A342F0
:1024200024BF0368C36003460846D96807F05AFD15
:1024300010BD704770B50546FFF7C2FC95F84530F2
:10244000DCB263B2002B11DD6B6A05F124061BB907
:102450000CE06B6A03B909E0304601F0F7F808B107
:1024600001F0E6F9631E13F0FF04F2D1FF2385F8B3
:102470004530FFF7C7FCFFF7A3FC95F84430DCB20A
:1024800063B2002B11DD2B6905F110061BB90CE0BE
:102490002B6903B909E0304601F0D8F808B101F022
:1024A000C7F9631E13F0FF04F2D1FF2385F844300F
:1024B000FFF7A8FC70BD00BF38B540B94FF014035A
:1024C00083F31188BFF36F8FBFF34F8FFEE704468E
:1024D0000D46FFF775FC2268216CE36B03FB01F3EB
:1024E000D018A0600020A06362605B1A1344E36010
:1024F000FF2384F8443084F845307DB92369ABB1BB
:1025000004F1100001F0A2F880B14FF08052094BA5
:102510001A60BFF34F8FBFF36F8F07E004F1100015
:10252000FFF7E4FE04F12400FFF7E0FEFFF76AFC8A
:10253000012038BD04ED00E0F8B540B94FF01403B8
:1025400083F31188BFF36F8FBFF34F8FFEE70D4604
:102550001746064601FB00F0B9B1B0FBF1F39E420D
:102560001ED04FF0140383F31188BFF36F8FBFF3B6
:102570004F8FFEE7E663256420460121FFF79CFFAD
:1025800084F84C7012E02460F4E7503001F0A6FCAF
:1025900004460028F7D109E004F150032360E9E77D
:1025A000503001F09BFC04460028F5D12046F8BDD0
:1025B00040B94FF0140383F31188BFF36F8FBFF35B
:1025C0004F8FFEE7884208D24FF0140383F311883F
:1025D000BFF36F8FBFF34F8FFEE710B50C4600219E
:1025E0000222FFF7A9FF034600B18463184610BD1D
:1025F0002DE9F04F85B0019240B94FF0140383F3F9
:102600001188BFF36F8FBFF34F8FFEE7044651B9B8
:10261000026C42B14FF0140383F31188BFF36F8F44
:10262000BFF34F8FFEE7022B0BD1E26B012A08D0DC
:102630004FF0140383F31188BFF36F8FBFF34F8FF5
:10264000FEE71D460E4601F0FFF850B9019B53B15D
:102650004FF0140383F31188BFF36F8FBFF34F8FD5
:10266000FEE7002700E000274FF00109DFF80481B2
:10267000FFF7A6FBA26BE36B9A4201D3022D21D197
:10268000204631462A46FFF787FE636A6BB104F1A4
:10269000240000F0DBFF88B14FF08052354B1A6008
:1026A000BFF34F8FBFF36F8F08E038B14FF0805208
:1026B000304B1A60BFF34F8FBFF36F8FFFF7A2FB52
:1026C000012054E0019B1BB9FFF79CFB00204EE06A
:1026D0001FB902A801F05EF84F46FFF793FB00F028
:1026E00065FDFFF76DFB94F844305BB2B3F1FF3F3B
:1026F00004BF002384F8443094F845305BB2B3F152
:10270000FF3F04BF002384F84530FFF77BFB02A89E
:1027100001A901F04BF820BBFFF752FBD4F838B009
:10272000D4F83CA0FFF76EFBD34514D104F11000A0
:10273000019900F027FF2046FFF77CFE00F0D6FD50
:10274000002895D14FF08053C8F80030BFF34F8F69
:10275000BFF36F8F8CE72046FFF76CFE00F0C6FDDD
:1027600086E72046FFF766FE00F0C0FD002005B0BA
:10277000BDE8F08F04ED00E010B502460120002115
:10278000FFF7DAFE044638B1002383600360C360BC
:1027900019461A46FFF72CFF204610BD2DE9F843D5
:1027A00040B94FF0140383F31188BFF36F8FBFF369
:1027B0004F8FFEE7044651B9006C40B14FF014034F
:1027C00083F31188BFF36F8FBFF34F8FFEE7022BA8
:1027D0000BD1E06B012808D04FF0140383F311886C
:1027E000BFF36F8FBFF34F8FFEE7984616468946BB
:1027F000FFF714FCEFF311874FF0140383F31188F4
:10280000BFF36F8FBFF34F8FA26BE36B9A4202D37C
:10281000B8F1020F29D194F84550EDB2A36B2046D0
:1028200049464246FFF7B8FD6BB2B3F1FF3F0AD10C
:10283000636AE3B104F1240000F008FFC8B1D6B127
:102840000120306018E06BB27F2B08D14FF01403E9
:1028500083F31188BFF36F8FBFF34F8FFEE76B1CBD
:10286000DBB284F84530012006E0002004E00120BE
:1028700002E0012000E0012087F31188BDE8F88321
:1028800040B94FF0140383F31188BFF36F8FBFF388
:102890004F8FFEE770B50446036C43B14FF014034D
:1028A00083F31188BFF36F8FBFF34F8FFEE7036889
:1028B00053B9836843B14FF0140383F31188BFF316
:1028C0006F8FBFF34F8FFEE70D46FFF7A7FBEFF3C8
:1028D00011864FF0140383F31188BFF36F8FBFF39A
:1028E0004F8FA36BE26B934223D294F845200133C0
:1028F000A363D3B2FF2A0AD1636AE3B104F12400CF
:1029000000F0A4FEC8B1D5B10120286018E05AB289
:102910007F2A08D14FF0140383F31188BFF36F8F20
:10292000BFF34F8FFEE70133DBB284F8453001205F
:1029300006E0002004E0012002E0012000E0012088
:1029400086F3118870BD00BF2DE9F04385B0019278
:1029500040B94FF0140383F31188BFF36F8FBFF3B7
:102960004F8FFEE7044651B9036C43B14FF0140397
:1029700083F31188BFF36F8FBFF34F8FFEE70E46CF
:1029800000F062FF50B9019B53B14FF0140383F381
:102990001188BFF36F8FBFF34F8FFEE7002700E072
:1029A00000274FF00109DFF8EC80FFF709FAA56B6B
:1029B000C5B120463146FFF72BFD013DA5632369D4
:1029C00063B104F1100000F041FE38B14FF08052C5
:1029D000304B1A60BFF34F8FBFF36F8FFFF712FAC0
:1029E000012053E0019B1BB9FFF70CFA00204DE0DA
:1029F0001FB902A800F0CEFE4F46FFF703FA00F021
:102A0000D5FBFFF7DDF994F844305BB2B3F1FF3F3B
:102A100004BF002384F8443094F845305BB2B3F12E
:102A2000FF3F04BF002384F84530FFF7EBF902A80D
:102A300001A900F0BBFEF0B92046FFF7A1FCA0B150
:102A400004F12400019900F09DFD2046FFF7F2FCFF
:102A500000F04CFC0028A8D14FF08053C8F800309B
:102A6000BFF34F8FBFF36F8F9FE72046FFF7E2FC66
:102A700000F03CFC99E72046FFF7DCFC00F036FC58
:102A80002046FFF77DFC00288FD0002005B0BDE870
:102A9000F08300BF04ED00E02DE9F04184B0019126
:102AA00040B94FF0140383F31188BFF36F8FBFF366
:102AB0004F8FFEE70446036C43B14FF0140383F3DA
:102AC0001188BFF36F8FBFF34F8FFEE700F0BCFE9E
:102AD00050B9019B5BB14FF0140383F31188BFF32E
:102AE0006F8FBFF34F8FFEE700252E4601E00025D4
:102AF0002E464FF001084E4FFFF762F9A36BCBB1A2
:102B0000013BA363236813B900F0BEFFA0602369F3
:102B100063B104F1100000F099FD38B14FF080521C
:102B2000434B1A60BFF34F8FBFF36F8FFFF76AF904
:102B3000012079E0019B6BB945B14FF0140383F399
:102B40001188BFF36F8FBFF34F8FFEE7FFF75AF97E
:102B5000002069E01EB902A800F01CFE4646FFF7FF
:102B600051F900F023FBFFF72BF994F844305BB2E6
:102B7000B3F1FF3F04BF002384F8443094F845309C
:102B80005BB2B3F1FF3F04BF002384F84530FFF789
:102B900039F902A801A900F009FE38BB2046FFF769
:102BA000EFFBE8B123683BB9FFF70AF9A06800F032
:102BB0005BFE0546FFF726F904F12400019900F0B9
:102BC000E1FC2046FFF736FC00F090FB002893D193
:102BD0004FF080533B60BFF34F8FBFF36F8F8BE796
:102BE0002046FFF727FC00F081FB85E72046FFF732
:102BF00021FC00F07BFB2046FFF7C2FB00283FF4DE
:102C00007BAF85B1FFF7DCF8636A23B1236B1968EA
:102C1000C1F10A0100E00021A06800F0CFFEFFF73B
:102C2000F1F8002000E0002004B0BDE8F08100BF12
:102C300004ED00E040B94FF0140383F31188BFF3B3
:102C40006F8FBFF34F8FFEE710B50446FFF7B8F85C
:102C5000A46BFFF7D7F8204610BD00BF10B40B4B94
:102C60001B682BB10123094C54F8332042B900E012
:102C70000023064A42F8331002EBC303586002E017
:102C80000133082BF0D15DF8044B7047B8D4002015
:102C90000B4B5B68834205D0094A0123D16881420E
:102CA00009D100E00023064A002142F8331002EB6C
:102CB000C3035960704701330832082BEED17047C7
:102CC000B8D4002040B94FF0140383F31188BFF348
:102CD0006F8FBFF34F8FFEE710B50446FFF7D8FFA5
:102CE000204601F09FF910BD70B504460E4615460A
:102CF000FFF766F894F844305BB2B3F1FF3F04BFCE
:102D0000002384F8443094F845305BB2B3F1FF3FC0
:102D100004BF002384F84530FFF774F8A36B2BB988
:102D200004F1240031462A4600F072FC2046FFF7E9
:102D300081FB70BD074B1B681B6823B94FF0FF3246
:102D4000054B1A607047034B1B68DB681A68024B1F
:102D50001A6070470C0800202C09002070B504464A
:102D60000E461C4B1D681C4B18680430FFF7F4FA24
:102D700048B9194B1B6819490A68D86A012383406E
:102D800022EA03030B60B4F1FF3F07D136B1124BC7
:102D9000196813480431FFF7B9FA70BD2C440E4B83
:102DA0001B685C60A54207D90E4B18680A4B19686E
:102DB0000431FFF7B7FA70BD0B4B1868064B196862
:102DC0000431FFF7AFFA094B1B689C423CBF074B2D
:102DD0001C6070BD28090020FC0800206809002044
:102DE00054090020280800200C0800202C0900208D
:102DF00080B5174D174F184EDFF864802B68BBB1B4
:102E0000FEF7DEFFFB68DC68201DFFF7A5FA3368DC
:102E1000013B33602B68013B2B60FEF7F3FF206B17
:102E200001F000F9204601F0FDF82B68002BE7D1F6
:102E30000A4B1B68012B07D94FF08053C8F80030AC
:102E4000BFF34F8FBFF36F8F07F04EFED6E700BF83
:102E50004C090020140800204809002030080020F8
:102E600004ED00E02DE9F84F80460F4699460B9E91
:102E70009500284601F032F8002800F0C480824610
:102E8000602001F02BF8044668B1C0F830A050462D
:102E9000A5212A4607F052F8043D236B1D4425F076
:102EA000070527B919E0504601F0BCF8ABE03B78C4
:102EB00084F834303B7863B13B4604F1340207F1C7
:102EC000130113F8010F02F8010F187808B18B42B3
:102ED000F7D1002384F8473002E0002384F834302F
:102EE0000A9B092B28BF09231F46E36223654FF085
:102EF000000AC4F854A004F1040B5846FFF702FA84
:102F000004F11800FFF7FEF92461C7F10A03A36179
:102F1000646284F858A084F859A084F85AA084F810
:102F20005BA084F85CA0284641464A46FEF716FF9F
:102F3000206006B13460FEF743FF354A1368013361
:102F40001360344B1B681BBB324B1C601368012B96
:102F500029D1314D05F1C8062846FFF7C7F91435C8
:102F6000B542F9D12D4E3046FFF7C0F92C4D284619
:102F7000FFF7BCF92B48FFF7B9F92B48FFF7B6F973
:102F80002A48FFF7B3F92A4B1E602A4B1D600AE05E
:102F9000294B1B683BB91F4B1B68DA6AE36A9A42EC
:102FA0009CBF1C4B1C60254A136801331360A3644B
:102FB000E06A23490A680123834013430B6000EB56
:102FC0008000154B03EB80005946FFF79FF9FEF791
:102FD00019FF194B1B6883B10E4B1B68DA6AE36A51
:102FE0009A420DD24FF08052164B1A60BFF34F8FAA
:102FF000BFF36F8F0120BDE8F88F0120BDE8F88F87
:103000000120BDE8F88F4FF0FF30BDE8F88F00BF1A
:1030100048090020FC080020300800201409002086
:103020003009002000090020140800205409002065
:103030000C08002028080020100800204409002067
:103040006809002004ED00E038B50446FEF7B8FE3C
:103050000CB92B4B1C68251D2846FFF77DF968B974
:10306000E16A01EB81039B00264AD35833B9264815
:10307000036801228A4023EA02030360A36A1BB1AA
:1030800004F11800FFF768F9204A13680133136050
:103090001B4B1B689C4208D11D482946FFF736F997
:1030A0001C4A1368013313600BE01B4A1368013B91
:1030B0001360206B00F0B6FF204600F0B3FFFFF76F
:1030C00039FEFEF79FFE154B1B68BBB10C4B1B680E
:1030D0009C4213D1124B1B6843B14FF0140383F38E
:1030E0001188BFF36F8FBFF34F8FFEE74FF0805211
:1030F0000C4B1A60BFF34F8FBFF36F8F38BD00BF0B
:10310000FC08002030080020680900204409002045
:10311000140800204C090020480900201008002055
:10312000F808002004ED00E000B583B00023009310
:10313000184A0192184819497822FFF793FE01288E
:1031400018D100F0FFFC012814D14FF0140383F3D1
:103150001188BFF36F8FBFF34F8F4FF0FF32104BCB
:103160001A6001220F4B1A6000220F4B1A60FEF703
:10317000C9FE0BE0B0F1FF3F08D14FF0140383F319
:103180001188BFF36F8FBFF34F8FFEE703B05DF879
:1031900004FB00BF50090020F12D000848AB0008D7
:1031A0002C0900201008002028090020024A13687A
:1031B00001331360704700BFF8080020014B186806
:1031C000704700BF280900202DE9F0473C4B1B68E1
:1031D000002B6DD13B4B1D6801351D60C5B93A4BC5
:1031E0001B681B6843B14FF0140383F31188BFF3CE
:1031F0006F8FBFF34F8FFEE7334A1168334B186868
:1032000010601960324A136801331360FFF792FDB2
:10321000304B1B689D4201D2002438E00024DFF8C7
:10322000A8802D4FDFF8B8A0D8F800301B6823B96C
:103230004FF0FF32274B1A6029E0D8F80030DB68E6
:10324000DE6873689D4202D2224A13601FE006F1D5
:1032500004094846FFF780F8B36A1BB106F118006D
:10326000FFF77AF8F06A3B680122824013433B6023
:1032700000EB80000AEB80004946FFF747F8174B48
:103280001B68F26ADB6A9A4228BF0124CCE7134B21
:103290001B68DB6A03EB83039B00114AD358022BA4
:1032A00028BF01240F4B1B68002B18BF012404E02A
:1032B0000D4A13680133136000242046BDE8F087EF
:1032C000F8080020280900200C0800202808002009
:1032D000080800202C09002068090020FC080020B4
:1032E000300800206C0900202C080020354B1B689A
:1032F00043B94FF0140383F31188BFF36F8FBFF30B
:103300004F8FFEE72DE9F041FEF75AFD2D4B1A686D
:10331000013A1A601B68002B4BD12B4B1B6813BB67
:10332000002449E0F368DC6804F11800FFF714F8A2
:10333000271D3846FFF710F8E06A2B68012282400B
:1033400013432B6000EB800008EB80003946FEF74A
:10335000DDFF1E4B1B68E26ADB6A9A4208D301223A
:103360001B4B1A6004E000241A4E1B4DDFF87480DA
:103370003368002BD6D10CB1FFF7DCFC174B1C686F
:1033800054B1134E0125FFF71FFF00B13560013C1A
:10339000F9D10022114B1A600D4B1B685BB14FF045
:1033A00080520F4B1A60BFF34F8FBFF36F8F012412
:1033B00002E0002400E00024FEF724FD2046BDE8E2
:1033C000F08100BFF808002048090020FC08002018
:1033D0006C09002000090020680900202C0800204A
:1033E00004ED00E03008002038B540B94FF0140378
:1033F00083F31188BFF36F8FBFF34F8FFEE705464E
:1034000041B94FF0140383F31188BFF36F8FBFF3FB
:103410004F8FFEE71A4B1B6843B14FF0140383F341
:103420001188BFF36F8FBFF34F8FFEE70C46FFF796
:10343000BDFE144B18682A681319904205D29A42AF
:103440001AD92B60984209D204E09A4212D89842C5
:1034500010D311E0181A0021FFF780FCFFF746FF98
:1034600060B94FF08052084B1A60BFF34F8FBFF323
:103470006F8F38BD2B60EDE72B60EFE738BD00BFE5
:10348000F80800202809002004ED00E010B5A8B1DC
:1034900004460F4B1B6843B14FF0140383F31188AC
:1034A000BFF36F8FBFF34F8FFEE7FFF77FFE20461E
:1034B0000021FFF753FCFFF719FF38B94FF0805296
:1034C000044B1A60BFF34F8FBFF36F8F10BD00BF67
:1034D000F808002004ED00E0254B1B681BB1012219
:1034E000244B1A60704710B50022224B1A60224B01
:1034F0001A681B6812681B6B9A4205D81E4B186825
:103500001968343107F0EEFA1C4B1B68B3FA83F3E9
:10351000DBB2C3F11F0303EB8302920018498A5800
:1035200042B94FF0140383F31188BFF36F8FBFF3D9
:103530004F8FFEE7124A9900C81802EB80004468DA
:103540006468446002460832944206D1606803EB26
:1035500083010B4A02EB8102506003EB8303084AAC
:1035600002EB83035B68DA68034B1A6010BD00BF8F
:10357000F80800206C090020FC08002068090020E1
:103580003008002040B94FF0140383F31188BFF3D3
:103590006F8FBFF34F8FFEE710B50C46044B1968D1
:1035A0001831FEF7BFFE20460121FFF7D7FB10BD03
:1035B000FC08002040B94FF0140383F31188BFF3D7
:1035C0006F8FBFF34F8FFEE703460F48006840B987
:1035D0004FF0140383F31188BFF36F8FBFF34F8F46
:1035E000FEE710B5184614460B46084A116843F02A
:1035F00000438B6111681831FEF788FE20460121D7
:10360000FFF7ACFB10BD00BFF8080020FC0800204D
:1036100038B540B94FF0140383F31188BFF36F8FAF
:10362000BFF34F8FFEE714460D46074B196818315C
:10363000FEF76CFE002C0CBF28464FF0FF302146F1
:10364000FFF78CFB38BD00BFFC08002038B5C3680D
:10365000DC6844B94FF0140383F31188BFF36F8F14
:10366000BFF34F8FFEE704F118052846FEF774FEFE
:10367000124B1B689BB9251D2846FEF76DFEE06ABC
:103680000F490B680122824013430B6000EB80005E
:103690000C4B03EB80002946FEF738FE03E00A4896
:1036A0002946FEF733FE094B1B68E26ADB6A9A4241
:1036B00083BF0120064B1860002038BDF8080020A9
:1036C000680900203008002000090020FC080020C4
:1036D0006C09002038B51C4B1B6843B94FF014032C
:1036E00083F31188BFF36F8FBFF34F8FFEE741F075
:1036F00000430360C46844B94FF0140383F3118896
:10370000BFF36F8FBFF34F8FFEE7FEF725FE251D3A
:103710002846FEF721FEE06A0C490B680122824030
:1037200013430B6000EB8000094B03EB800029463C
:10373000FEF7ECFD074B1B68E26ADB6A9A4202D98E
:103740000122054B1A6038BDF808002068090020E6
:1037500030080020FC0800206C09002040B94FF020
:10376000140383F31188BFF36F8FBFF34F8FFEE70E
:1037700010B50446FEF724FB044B1B682360044B82
:103780001B686360FEF73EFB10BD00BF0808002009
:1037900028090020034B1B680360034B1B68436030
:1037A000704700BF080800202809002040B94FF0EA
:1037B000140383F31188BFF36F8FBFF34F8FFEE7BE
:1037C00070B5054641B94FF0140383F31188BFF378
:1037D0006F8FBFF34F8FFEE70C46FEF7F1FA124BE7
:1037E0001A6869682368B3F1FF3F18D00F48006872
:1037F0002E68864205D08A4203D300232360012429
:103800000EE0521A9A4206D29B1A23602846FFF70E
:10381000C1FF002404E000232360012400E0002411
:10382000FEF7F0FA204670BD2809002008080020A5
:103830000122014B1A6070476C090020014B186887
:10384000704700BFFC080020054B1B6833B1054BD7
:103850001B68002B0CBF022000207047012070471E
:1038600010080020F808002000284AD038B5034688
:10387000C26A25490968C96A8A4239D28169002920
:1038800005DB21490968C96AC1F10A01816102EBBE
:1038900082021E4901EB82025969914222D11C46E3
:1038A0001D1D2846FEF758FD38B919490A68E06A17
:1038B0000123834022EA03030B60134B1B68D86A81
:1038C000E062134A1368012404FA00F10B43136009
:1038D00000EB80000D4B03EB80002946FEF716FD40
:1038E000204638BD084A1268D26ADA62012038BD23
:1038F000054A1268036DD06A83422CBF0020012064
:1039000038BD0020704700BFFC08002030080020B0
:1039100068090020002844D038B50346244A1268BC
:10392000904208D04FF0140383F31188BFF36F8FD8
:10393000BFF34F8FFEE7426D42B94FF0140383F39C
:103940001188BFF36F8FBFF34F8FFEE7013A4265D7
:10395000C06A196D884226D03ABB1C461D1D2846F8
:10396000FEF7FAFC38B913490B68E06A012282407D
:1039700023EA02030B60206DE062C0F10A03A36139
:103980000C4A1368012404FA00F10B43136000EBA6
:103990008000094B03EB80002946FEF7B7FC204668
:1039A00038BD00207047002038BD002038BD00BF62
:1039B000FC080020680900203008002000284FD0B3
:1039C00038B50346406D40B94FF0140383F31188B6
:1039D000BFF36F8FBFF34F8FFEE71A6D8A4238BF78
:1039E0000A46D96A91423AD0012838D11D48006868
:1039F000834208D14FF0140383F31188BFF36F8F14
:103A0000BFF34F8FFEE7DA6298690028A4BFC2F1C6
:103A10000A029A6101EB8101134A02EB81015A69A2
:103A20008A421CD11C461D1D2846FEF795FC38B95C
:103A30000E490B68E06A0122824023EA02030B6010
:103A4000E06A0A490B680122824013430B6000EBD5
:103A50008000054B03EB80002946FEF757FC38BD7C
:103A6000704700BFFC0800203008002068090020D3
:103A7000044B1A6890691A681B68DB6AC3F10A0371
:103A800093617047FC080020054B1B6823B1044B71
:103A90001A68536D01335365014B1868704700BFB6
:103AA000FC08002010B504464160206191420AD80C
:103AB000D21A83699A4211D20A4B1868211DFEF767
:103AC00031FC002010BD9A4201D2994208D2064B27
:103AD0001868211DFEF726FC002010BD012010BD36
:103AE000012010BDA00900207009002038B5FEF7A4
:103AF00067F90E4B1B68B3B90D4D2846FEF7F6FB70
:103B00000C4C2046FEF7F2FB0B4B1D600B4B1C6070
:103B100005200C210022FEF70FFD044B186010B1A8
:103B20000749FFF79BF8FEF76DF938BD9C090020A7
:103B3000740900208809002070090020A0090020D5
:103B400050AB000800B583B0FFF7D0FF0C4B1B68EB
:103B500053B1012300930B4B01930B480B49F02207
:103B60000023FFF77FF940B94FF0140383F3118866
:103B7000BFF36F8FBFF34F8FFEE703B05DF804FB19
:103B80009C090020A4090020A13C000858AB0008B3
:103B900040B94FF0140383F31188BFF36F8FBFF365
:103BA0004F8FFEE730B585B0154604460F4A1068C2
:103BB000C0B11A4601910295039405290DDCFFF767
:103BC00043FE0228094B186801A907BF089A002381
:103BD00000221346FEF70CFD05E001A90023FEF7C5
:103BE000DDFD00E0002005B030BD00BF9C090020D5
:103BF0002DE9F04782B00746FFF7E0FA0646254B6D
:103C00001B6898423DD22DE0DB68D3F800A0DC6849
:103C100004F104094846FEF79FFB236A20469847B3
:103C200094F8283013F0040F1FD0A3695344534570
:103C300006D96360246128684946FEF773FB14E0E7
:103C4000CDF800802046414652464346FFF7A0FF8C
:103C500058B94FF0140383F31188BFF36F8FBFF38C
:103C60004F8FFEE70C4D4FF000082B681A68002AB2
:103C7000CAD10A4A106808490860136001233B60F2
:103C800001E000233B60034B1E60304602B0BDE8FC
:103C9000F08700BFA809002070090020A0090020BB
:103CA0002DE9F04786B0734E734DDFF8D481734F22
:103CB00033681A685AB1DB68D3F80090FFF776FAD8
:103CC00003A8FFF795FF0446039B4BB158E0FFF7AD
:103CD0006DFA03A8FFF78CFF0446039BB3B34FE0D4
:103CE000814588BF002239D8FFF700FB3368DB68C5
:103CF000D3F80CA00AF10400FEF72EFB9AF8283046
:103D000013F0040F19D0DAF818105046494422462F
:103D10004B46FFF7C7FEA0B100230093504619465B
:103D20004A46FFF735FF60B94FF0140383F311885B
:103D3000BFF36F8FBFF34F8FFEE723F001038AF8C5
:103D40002830DAF82030504698478AE03B681A68F5
:103D5000B2FA82F252094FF00009FFE72868C4EB7B
:103D60000901FEF7C1FFFFF7C1FA002879D14FF032
:103D70008053C8F80030BFF34F8FBFF36F8F70E0F0
:103D8000FFF7B4FA6DE0039B002B6BDB059C6369C6
:103D900013B1201DFEF7E0FA02A8FFF729FF8646BF
:103DA000039A092A5DD8DFE802F00505052F364F92
:103DB00005052F3694F8283043F0010384F82830A5
:103DC000049BA169204619447246FFF76BFE002848
:103DD00047D0236A2046984794F8283013F0040F00
:103DE0003FD0A2690023009320461946049C224438
:103DF000FFF7CEFEA8BB4FF0140383F31188BFF387
:103E00006F8FBFF34F8FFEE794F8283023F0010344
:103E100084F8283025E094F8283043F0010384F832
:103E200028300499A16141B94FF0140383F311883C
:103E3000BFF36F8FBFF34F8FFEE72046714472468A
:103E40007346FFF72FFE0CE094F8283013F0020FB2
:103E500003D1204600F0E6F803E023F0010384F8E4
:103E600028300024286803A92246FEF76DFD0028AB
:103E700089D11DE7700900209C090020A0090020BD
:103E800004ED00E0134A00E01A4613688342FBD3B6
:103E900030B4114654681519854203D1686804444A
:103EA00054601046426884189C420CD10A4B1B682F
:103EB0009C4206D063681A4442600B681B6803602A
:103EC00002E0046000E00360814218BF086030BC7B
:103ED000704700BFB8090020B4090020F8B50446B7
:103EE000FFF764F9484B1B6823BB484A12F0070FE1
:103EF00007D0D11D21F0070102F540435B1A0A46A5
:103F000001E04FF440434248026000214160134405
:103F1000083B23F007033C48036059601960991A75
:103F2000516013603B4B19603B4B19604FF00042EE
:103F30003A4B1A60394B1E6834425CD1002C5DD07C
:103F400004F1080313F0070F1CBF23F00703083325
:103F5000002B50D0304A1768BB424CD82C4A14680A
:103F600001E022460C4661688B4202D92168002993
:103F7000F7D1254909688C423DD015682168116048
:103F80006268D21A102A10D9E01810F0070F08D072
:103F90004FF0140383F31188BFF36F8FBFF34F8F7C
:103FA000FEE742606360FFF76DFF6268BB1A1A4963
:103FB0000B60184909688B423CBF16490B600835F5
:103FC0001643666000232360154A136801331360AB
:103FD000FFF78CF91DB906F093FD002511E015F0EF
:103FE000070F0ED04FF0140383F31188BFF36F8FC8
:103FF000BFF34F8FFEE7FFF779F9ECE7FFF776F9AC
:10400000E9E72846F8BD00BFB4090020C409002034
:10401000B8090020C8C90020B0090020C4C9002088
:10402000AC090020002833D010B5044650F8043CF9
:10403000184A12681A4208D14FF0140383F311880A
:10404000BFF36F8FBFF34F8FFEE750F8081C41B1ED
:104050004FF0140383F31188BFF36F8FBFF34F8FBB
:10406000FEE723EA020340F8043CFFF79FF80A4A00
:10407000116854F8043C0B441360A4F10800FFF7E6
:1040800001FF064A136801331360FFF72FF910BDD3
:10409000704700BFC4C90020B0090020C00900203B
:1040A0002DE9F04383B001238DF800300025019500
:1040B000354E364F364C30684FF0FF31FEF7ECFC92
:1040C000012852D14FF48053C4F88C30BFF34F8F86
:1040D000BFF36F8F38684FF0FF31FEF7DDFC054608
:1040E00001284BD12B4A92F8273012695B01D35833
:1040F000002B0ADA274B1B68802141F214029950E9
:10410000002141F20802995031E02248FDF7E8F918
:10411000054660B3002100F07DFA814638B3DFF830
:10412000748098F82720D8F8103003EB4213806988
:1041300099682A4605F0D6FEC9F81C504046FDF79E
:10414000BFFAD8F80030802141F2140299500021C2
:1041500041F208029950CDF80490684601F026F823
:1041600028B9484600F034FA01E0012D06D138683C
:1041700000210A460B46FEF73BFA01254FF4805317
:10418000C4F88C31E36096E7DCC90020D4C9002074
:1041900000E100E078D5002038B52F4D00242846F6
:1041A0002146FDF727FB0128F9D1FDF709FE2A4C2E
:1041B00020460021FDF72CFB054620460021FDF797
:1041C0003BFB22681368284380B223F490430343E7
:1041D000136020464021FDF735FA20464FF40021B8
:1041E000FDF730FA1D4BDB68C3F30223C3F107016F
:1041F000062928BF06219A1D062A8CBF03F1FF322B
:104200000022012404FA01F3013B03F03003934040
:104210009B00DBB2124A82F86C334FF48053C2F831
:104220008C31D3600C48036841F21802995841F46C
:1042300000519950196841F00801196003689958B4
:1042400041F0020199501A6842F004021A60FDF729
:10425000D9FD204638BD00BF78D5002000ED00E034
:1042600000E100E070B504460E46C569284800210B
:10427000FDF7C0FA012846D16A1E40F2F3539A4274
:1042800041D8244B18684FF0FF31FEF705FC012898
:1042900039D11F4A92F826305B015269D118D358A0
:1042A000002B0DDAA06900F08BF9194B1B68022175
:1042B00041F214029950002541F204029D501AE087
:1042C00088684D60A1692A4605F00CFE1048036815
:1042D000022141F214029950002141F20402995046
:1042E000FDF704FA012506E07EB10023A361204614
:1042F00000F06EF909E0074B186800210A460B46EA
:10430000FEF776F9F0E70025EEE7284670BD00BF1E
:1043100078D50020D8C9002008B504480021FDF751
:1043200069FA012814BF0020012008BD78D50020BB
:10433000F0B585B04F4A02AB1068516803C34E4BCD
:104340001A684E4B1A604E4C2046FDF72DF9226834
:10435000136823F4801313602268536823F020034A
:1043600053602046002102AAFDF7F6F900287CD10F
:10437000444C04F5BE55103540F2F4570026204653
:1043800031463A4605F0DAFD04F2F454AC42F6D177
:104390003D4C04F5BE55103540F2F457002620463A
:1043A00031463A4605F0CAFD04F2F454AC42F6D167
:1043B000334D002428462146FDF71CFA0128F9D187
:1043C00000210322FEF7B8F8304B186020B100211D
:1043D0000A460B46FEF70CF90120FEF7CDF92C4BEF
:1043E00018600120FEF7C8F92A4B1860274B1B689C
:1043F00043B94FF0140383F31188BFF36F8FBFF3FA
:104400004F8FFEE7224B1B6843B94FF0140383F331
:104410001188BFF36F8FBFF34F8FFEE740B94FF0A6
:10442000140383F31188BFF36F8FBFF34F8FFEE741
:1044300002230093184B019318481949F0220023D6
:10444000FEF710FD0446012810D0104B1868FEF747
:1044500039FC0F4B1868FEF735FC0E4B1868FEF759
:1044600031FC0020FEF7F0FD00E00024204605B0FE
:10447000F0BD00BF60AB000868AB000840400050D2
:1044800078D5002000000030D0170030DCC90020B3
:10449000D8C90020D4C90020CCC90020A140000800
:1044A0006CAB0008012817D138B5FFF735FF01289C
:1044B00011D10A4D28460021FDF7AAF904462846E5
:1044C0000021FDF7B9F92A681368204380B223F46C
:1044D00090430343136038BD704700BF78D5002078
:1044E000704700BF00B583B000230193104B1B68D9
:1044F000D3B11048FDF7D8F80F4B186010F0400FFB
:1045000004D00E4B186801A9FEF7BAF909484021FA
:10451000FDF7B2F8019B3BB14FF08052084B1A6097
:10452000BFF34F8FBFF36F8F03B05DF804FB00BF85
:10453000CCC9002078D50020D0C90020DCC90020DB
:1045400004ED00E0F8B5194B1B684BBB3C2001465D
:10455000FEF72EF8154B186040B94FF0140383F3A3
:104560001188BFF36F8FBFF34F8FFEE71049FEF73F
:1045700075FB1048FDF7BAFE0F4C04F507670026DF
:104580000C4DA6612046FDF7BDFEE460284621469D
:10459000FDF7C8FE2434BC42F3D13C22074B1A601D
:1045A000024B1868003018BF0120F8BD50D200201F
:1045B00078AB000854D20020E0C9002068D2002067
:1045C00020B108B50A38FFF72DFD08BD704700BFC0
:1045D00010B504468069FFF7F3FF0023A361FDF7E0
:1045E000EFFB2269094B9A420DD018462146FDF790
:1045F0008DFEFDF707FC064B186800210A460B46A6
:10460000FDF7F6FF10BDFDF7FDFB10BD54D20020F5
:1046100050D2002070B5244B1B68002B3ED0421EA8
:10462000442A07D9851C15F0030F04D045F0030573
:10463000013500E048251846FEF72EFA01282FD153
:10464000FDF7BEFB194EF368DC682046FDF784FEDB
:10465000FDF7D8FB3368164A126893423CBF144AF0
:104660001360A36943B14FF0140383F31188BFF3C0
:104670006F8FBFF34F8FFEE79DB105F10A00FFF783
:104680002DFCA06120B92046FFF7A2FF002408E01E
:104690000460A3690A33A361E56102E0002400E03D
:1046A0000024204670BD00BF50D2002054D200200C
:1046B00068D200202DE9F04F83B0474B5B6981EA57
:1046C0000304464A5268144202D0002B40F0818015
:1046D0000F460646424C4FF0FF0B002301934FF06C
:1046E000FF38C1461D464FF0060A002E5CD020461A
:1046F0003146524605F0E2FBB0FA80F0400954F82A
:10470000043CBB420AD180B1364B6A00511903EB1D
:104710008101962088720122CA725AE038B9A379C1
:104720005B4505D29B46019502E0A94600E0A846FC
:1047300001350C34062DD8D100E0A946B8F1000FA0
:104740000FDBB9F1000F34DB264909EB49094FEAC9
:10475000890901EB0903002241F809205A609A6097
:1047600030E0B9F1000F2CDADDF8048021E01D4AB9
:104770004FEA480101EB080302EB830330685860FD
:10478000B0881881962098721A460123D37220E0CF
:10479000144B4FEA480202EB080103EB81010520AC
:1047A00088720022CA7214E054F8043CBB42B6D1AD
:1047B000C3E708EB48030B4A42F82370002ED6D11A
:1047C000E6E7C84608EB4803064A42F82370002E85
:1047D000CDD103B0BDE8F08FC0D500206CD3002050
:1047E00074D2002070D20020F0B583B00346C069B7
:1047F0000190D3F826502B4A5269002A4AD01C4611
:104800009B8AB3F5807F03D0B3F5007F3BD043E0B4
:10481000954243D104F11606019F30463946FFF711
:1048200049FF0023237502236375BD421BD11E4B34
:104830001A68C4F806209B886381002384F820301E
:1048400084F8213084F8223084F8233084F824302E
:1048500084F8253084F8263084F8273084F828300E
:1048600084F8293005E033682362B388A384C4F850
:1048700026700C4B1868C4F816009A88B2805869E4
:10488000E06102200BE004F116000199FFF712FF2E
:10489000002004E0002002E0002000E0002003B03F
:1048A000F0BD00BFC0D50020B0AB000870B5044615
:1048B0000E460568284600F005FD28B12846314619
:1048C00000F014FD012070BD2368B3F1FF3F03D059
:1048D000224A1269934206D1214B1A6832609B88A2
:1048E000B380012070BD1F4A52694AB35A401B4928
:1048F00049680A4228D0194A916829B31A4B1B68A3
:10490000994205D0184A0123D068814213D100E0B2
:10491000002303EB4302144901EB8202D27AD2B1A5
:1049200003EB430301EB830353F8040F30609B88D0
:10493000B380012070BD01330C32062BE4D107E0B7
:10494000022070BD022070BD002BFBD01946D5E7B8
:104950002160002070BD022070BD00BF6CD300201C
:10496000B0AB0008C0D5002070D2002040B94FF095
:10497000140383F31188BFF36F8FBFF34F8FFEE7EC
:10498000F0B58646C369292B08D84FF0140383F38A
:104990001188BFF36F8FBFF34F8FFEE78569124E0B
:1049A0002C4606F1200C37460FCF20606160A260D4
:1049B000E3603E4610346745F5D138682060BB8817
:1049C000A3800A4B1868C5F806009A886A81C5F862
:1049D00016006A835869E861DEF81430C5F826309D
:1049E0002A23CEF81C30F0BD88AB0008C0D50020CB
:1049F00030B583B005462A200021FFF70BFEC0B179
:104A000004464561FFF7B2FF00F0F0FA20B12046FE
:104A10000121FFF727FC0CE002238DF80030019400
:104A200068464FF0FF3100F0C1FB10B92046FFF798
:104A3000CFFD03B030BD00BFF8B51A4E06F10B0430
:104A400053360027254614F8013CABB1013BDBB2DD
:104A500004F8013C227822B954F80B0CFFF7C8FF88
:104A600005E0032B03D854F80B0CFFF7C1FF15F832
:104A7000013C0BB945F80B7C0C34B442E2D1FEF793
:104A80009DFB0446084B1B6823B1C31A44F6206201
:104A9000934205D9054B5869FFF7AAFF024B1C60EA
:104AA000F8BD00BF70D200206CD20020C0D500201D
:104AB00008B503480021482205F040FA08BD00BFB0
:104AC00070D200200A46F9B1037803F0C001C02972
:104AD00008D0DBB1012A1BD901339A4298BF0021CB
:104AE0001ED908E0022A8CBF0221002118E0013300
:104AF000934201D30EE00021D21A1944435C6BB1FA
:104B0000012AF4D800210BE0002109E0002107E090
:104B1000002105E0002103E0013101E00029FBD183
:104B2000084670472DE9F04F83B0054601900E46C8
:104B300091469846FEF742FB424CA4FB0034A40980
:104B400045B94FF0140383F31188BFF36F8FBFF3A0
:104B50004F8FFEE73C4F00253B79002B39D0381DA5
:104B6000019905F0F3F9A0BBB8F1000F23D0C5EB14
:104B7000C501354B03EB81014A69130643EA126311
:104B800002F47F4043EA002302F47F0243EA122347
:104B90008A6913449C4206D2C5EBC5052A4B53F8DB
:104BA000253033604AE0C5EBC505274B03EB850391
:104BB00000221A7142E03668234BEA00511B89003B
:104BC00058185E50C0F81490521B03EB82039C618E
:104BD00034E001351C37042DBED12BE000203060BD
:104BE0002DE0019805F0C6F90F281FD8DFF85CA06A
:104BF000DAF80050DFF850B0C5EBC507BF000BEB8B
:104C0000070808F10400019905F0A6F933684BF88C
:104C10000730C8F81490C8F818400135CAF8005099
:104C2000042D05D10020CAF8000008E0002006E0AD
:104C3000002004E0B8F1000FD3D0CFE7012003B08B
:104C4000BDE8F08FD34D6210D0D20020CCD200202E
:104C50002DE9F04F8DB000230B9307930893099330
:104C60000A930B2940F20D810092064600F10C05D3
:104C7000A1F10C04B0F804804FEA182343EA082895
:104C80001FFA88F8B8F1000F00F0018100274FF0FB
:104C9000020BB9460197002F62D1002C00F0F18081
:104CA000297801F0C003C02B01D069B9E9E0022CDA
:104CB00052D8E6E062B10F2A00F2E3800CAB134455
:104CC00003F814AC013203E04846019A4FF02E0A73
:104CD0008C46431C03EB010EA64500F2D280C1B105
:104CE000A34225D20F2A16D8284407A901EB020EA9
:104CF0009444013203E0511C11290ED00A4610F8E9
:104D0000011F0EF8011B0133624508D0A342F2D304
:104D10000EE0184604E0019802E0019800E0184611
:104D2000A04204D2295C0029C4D1034600E0034616
:104D3000002B00F0A6800F2A00F2A380A34280F08F
:104D4000A080E95C002940F09C800CA90A4402F88C
:104D5000149C591C01D194E059460D44611A08E095
:104D600028462146FFF7AEFE002800F08A80054461
:104D7000211A032940F2858004350C1F0137BFB288
:104D8000B84588D183E023B99AE0B9F1000F07D084
:104D900096E0009B01930027DFF844A10AF1080880
:104DA00028462146FFF78EFE00286AD00544241AC3
:104DB000012C66D92A786B7843EA0223012B51D162
:104DC0000D2C4FD92A89130A43EA02231BB2042B64
:104DD0003ED1D5F80A000B90B6F80090DDF82CB063
:104DE000FEF7E4F9DAF80C3043455CD01A689145D7
:104DF00003D01AE01A68914517D1D3F80C90D9F86E
:104E0000043007A8D9F810105A46984709F1140041
:104E1000FDF7A2FA4846FFF705F9DAF80030002B53
:104E200049D1002000F0F4FD45E05B684345E1D145
:104E300039E007A80BA96A680023FFF773FE4FF05B
:104E4000010902200BA903AA102301F0E5FA01E0F1
:104E50004FF000090E350E3C0137BFB2F388BB425C
:104E600093D82DE0092C2FD90A3C2A89130A43EA4A
:104E700002239BB29C4204D303F10A021544E41AB4
:104E800022E000230B9326E000230B9323E0F2881B
:104E9000130A43EA02239BB2F380728802F4786219
:104EA000802A0DD16FE7FEF721FA019B002BC0D1BC
:104EB0004FF00009C5E7FEF719FA01230193B8E79F
:104EC000009B002BE0D006E00137BFB2F388BB4265
:104ED0003FF666AFF4E70B980DB0BDE8F08F00BF6A
:104EE000B8D2002008B50248FDF700FA08BD00BF9F
:104EF000B8D200202DE9F0410646FEF757F91A4BCB
:104F0000DD6808339D4225D04FF000081F46EC684D
:104F10006D6856B12369B34207D104F11400FDF75F
:104F20001BFA2046FFF77EF812E004F10800214644
:104F3000FEF73CFC60B1636804F128002169424639
:104F4000984704F11400FDF707FA2046FFF76AF8C6
:104F5000BD42DCD1FEF7CAF9034B1B6813B9002030
:104F600000F056FDBDE8F081B8D20020C1692929C2
:104F700009D92A390B2906D908B580690022FFF71B
:104F800067FE002008BD0020704700BF38B50378D9
:104F900013F0010F26D0044613F0020F0DD1043098
:104FA00004F10C01FEF702FC18B1237843F0020370
:104FB0002370237813F0020F16D02569201DFEF709
:104FC000CDFBE56025B9237843F00203237003E0AD
:104FD00023786FF341032370237843F00103237098
:104FE000012038BD002038BD002038BD08B5FEF7CF
:104FF00025FC034B1B68834214BF0020012008BD21
:10500000BCD3002028B110F0030F04D150F8340CA9
:105010007047002070470020704700BF2DE9F04125
:1050200082B0089F584C246844B14FF0140383F3B6
:105030001188BFF36F8FBFF34F8FFEE7534C246887
:1050400044B14FF0140383F31188BFF36F8FBFF3A4
:105050004F8FFEE74E4C246844B14FF0140383F3A6
:105060001188BFF36F8FBFF34F8FFEE79846164648
:105070000D460446412008210022FDF75DFA434B0E
:10508000186040B94FF0140383F31188BFF36F8F9A
:10509000BFF34F8FFEE73F49FDF7E0FDFFF752FA00
:1050A000012868D1E278A3781B0443EA026394F8EC
:1050B00000C043EA0C0394F801C043EA0C2C364CC0
:1050C000C4F800C0EA78AB781B0443EA026395F8A1
:1050D00000E043EA0E0395F801E043EA0E2EC4F81F
:1050E00004E0F278B3781B0443EA026335782B437B
:1050F000757843EA0525A56098F8032098F80230F2
:105100001B0443EA026298F80030134398F8012028
:1051100043EA0223E3600CEA0E0868EA0E08C4F8CA
:1051200010801E4E0FCC0FC6C6F800801C4BC3F873
:1051300014C06DB18CEA050515EA0E0F08D04FF0CA
:10514000140383F31188BFF36F8FBFF34F8FFEE714
:10515000134B38681860BA889A8000F04FFD03231B
:1051600000930B4B01930F480F494FF41672002325
:10517000FDF778FE05E0054C2068FDF7A3FD002053
:10518000206002B0BDE8F0819CD3002068D30020ED
:10519000BCD30020C0AB00086CD3002054D3002047
:1051A000C0D500206D550008C8AB000838B50446CE
:1051B0000D46134B1B681BB990F9003073B11AE010
:1051C00090F90030062B09D10E4A137843F0020300
:1051D00013700D4B1868FDF72DFD70B9FFF706FF32
:1051E0000128094B1868214614BF2A4600220023D3
:1051F000FDF7FEF938BD002038BD012038BD00BFE5
:105200009CD30020A4D3002068D3002008B5054813
:105210000021FFF7CBFF012814BF01220022024B1F
:105220001A6008BDB8AB0008A0D3002000B583B059
:105230008DF80000002101916846FFF7B7FF03B029
:105240005DF804FB38B501220A4B1A600020FFF715
:1052500029F9FFF747FE084C42F210752561201D21
:10526000FEF77CFAE560237803F0FD0343F00103C9
:10527000237038BD84D3002088D3002008B50F4B9D
:105280001A786FF300021A700D4B1B68012B02D1C4
:105290000120FFF707F90122094B1A60FFF708FC0C
:1052A000FEF77AFF012806D040F6B830FEF7EEF898
:1052B000FFF7ACFF08BDFFF7C5FF08BD88D300208E
:1052C00080D30020030643EA106300F47F4243EAE0
:1052D000022300F47F0043EA102000F10050B0F1F7
:1052E000805F2CBF00200120704700BF030643EA07
:1052F000106300F47F4243EA022300F47F0043EA94
:10530000102001230B7000234B705E238B70C0F3C1
:105310000643CB70030A0B7148717047F0B5030A5E
:1053200043EA002083B21846002701F0030411F07D
:10533000010E05D06AB111F8015B65F30F27013A40
:10534000013C012C05D8012A03D931F8020B18447D
:10535000023A22F003060C3E0E448E421BD90B4645
:1053600000241D68401928BF01345D68401928BF1A
:1053700001349D68401928BF0134DD68401928BFF9
:10538000013410339E42ECD8CB431E4426F00F0666
:105390001036314400E0002483B203EB1040204477
:1053A000044602F00E050D448D420CD90B4633F82D
:1053B000020B04449D42FAD8CB431D4425F001055D
:1053C00002352944204612F0010F1CBF0B7863F30D
:1053D0000707384483B203EB104083B203EB10405D
:1053E000BEF1000F04D0C0F30723000280B21843BF
:1053F00080B2030A43EA002080B2F0BD212971D9AE
:105400002DE9F041837B03F00F039B0003F10E04B1
:10541000A1426AD3058A2C0A44EA0524A4B20E34B8
:10542000A14266D3C57DA3F114040619112D06D13E
:1054300003F11604A14260D306F1280412E0062D00
:1054400006D103F12204A1425BD306F1320409E044
:105450006C1EE4B2012C58D803F11604A14258D3B3
:1054600006F1240412B10021218003E0218809B94A
:10547000112D52D0078A390A41EA0727BFB2FF1A15
:10548000072F4DD9C3F596639F424DD890460146EC
:10549000022D08D8002006F122013A46FFF73EFF10
:1054A000C04380B208E0781980B21A3107F10802CF
:1054B000FFF734FFC04380B2B8F1000F0AD14FF6B6
:1054C000FF73002808BF1846030A43EA002080B291
:1054D000BDE8F08160BB112D4FF0FF3518BF0025EE
:1054E000A8B225E041F23420704741F23420BDE8F3
:1054F000F08141F23420BDE8F08141F23420BDE872
:10550000F08141F23420BDE8F08144F22130BDE861
:10551000F08141F23420BDE8F0810020BDE8F08147
:1055200041F23420BDE8F08141F23420BDE8F08141
:10553000030A43EA002080B22080BDE8F08100BF6A
:1055400038B504468269134653F8060F10609888F0
:105550009080054D2868C2F80600AA889A802046E7
:10556000FEF780FE38BD00BFC0D500202DE9F04F0A
:1055700087B0FFF74BFEBA4C4FF47A752561201DBA
:10558000FEF7ECF8E560237803F0FD0343F0010338
:1055900023700122B34B1A60B34F0197B34D04F14E
:1055A000040A0198FFF7F2FC10B10320FFF73EFE5A
:1055B0002846FFF7EBFC10B10020FFF79BFCAC4B3B
:1055C0001868FDF737FBB0FA80F676092046FFF73A
:1055D000DDFCA84B1B6803B106B9C0B1304601F031
:1055E00065FA06465046FEF7B9F8E66026B9237814
:1055F00043F00203237003E023786FF34103237029
:10560000237843F00103237000229A4B1A603B7801
:1056100013F0010F06D0FA6842F20F739A4204D8D1
:105620003A6904E042F2107201E042F21072E3685B
:105630009A4228BF1A462B7813F0010F03D0EB686B
:105640009A4228BF1A468A4B186804A9FDF77CF9CC
:1056500018B9FF238DF81030B6E19DF910300D2BED
:1056600000F2B281DFE813F00E0014006C0171014A
:105670008F01B0019F01A401B00174018B0197015A
:105680009B01930100227C4B1A60FFF7F7FD9BE121
:10569000059E46B94FF0140383F31188BFF36F8F53
:1056A000BFF34F8FFEE7F2690D2A40F24581D6F82D
:1056B0001880B8F80C30082B0AD0B3F5C16F40F051
:1056C0002E81292A40F238814046FFF78DF829E1E2
:1056D000212A40F2318198F80E3003F00F0E4FEA84
:1056E0008E01A2F10E00814200F22681132940F2C0
:1056F000238198F81790D8F81EC0B8F8140020F04D
:10570000F00080B2002840F06E81A3F14500C0B2E5
:105710000A2800F26A815948406984450ED0BCF1DC
:10572000FF3F0BD0DFF858B1DBF810B0DC4505D0F7
:10573000B0FA80F04009002800F0F480453B9BB2AD
:105740000A2B00F254814FEA8E0303F10E008242CD
:10575000C0F04F81B8F810E04FEA1E2040EA0E205A
:1057600080B200F10E0E7245C0F04581B9F1110F03
:1057700002D103F1160E0FE0B9F1060F02D103F1C9
:10578000220E09E009F1FF3E5FFA8EFEBEF1010F25
:1057900000F2338103F1160E7245C0F03081C01A59
:1057A000072840F22E81C3F59663984200F2C48028
:1057B000B9F1110F05D108EB01039B8A002B00F012
:1057C0000B81142940F20A81A1F1140B0E31223A07
:1057D00008F122004144CBEB020204F091FBF36993
:1057E000CBEB0303F36198F80E3023F00F0343F083
:1057F000050388F80E30F1E008F10600D8F81A1019
:10580000FEF758FFB9F1060F7DD0B9F1110F5CD04A
:10581000B9F1010F40F09080F369292B40F28C80A0
:10582000B269D8F81E30154949698B4240F084802E
:1058300092F8221031B3082973D1002182F8221086
:10584000D2F81A10C2F81E10C2F81A30938C4FF614
:10585000F6718B428CBF03F584730833938466E042
:10586000A4D300209CD3002088D3002040D3002064
:1058700068D30020C0D3002084D30020C0D50020EE
:105880006CD30020118A0B0A43EA01239BB202F178
:105890002A011C2B10D092F82A0078280ED11D3B2B
:1058A0009BB22A33134403E011F8010F782807D183
:1058B0009942F9D1002004E0002002E0022000E03B
:1058C0000220D18CFEF70CFE36E0B169CA8C130AB7
:1058D00043EA02239BB2F269292A2DD9072B2BD93F
:1058E0002A3AA3F10800824284BF2233F3614B8C31
:1058F0003384D1F81A3073613046898C03F084FD0B
:10590000012819D160E0304602F000FB012814BFE5
:10591000012003203C4A13680133136002E0002099
:1059200000E00020022802D003284DD004E03046D9
:105930000121FFF705FE47E03046FEF749FE43E050
:1059400005980121FEF78EFC3EE0FFF775F83BE07D
:10595000059E00230393B18C0A0A42EA0122ADF8A6
:105960000A20B384304602A9082200F0C9FB33683C
:1059700043F010033360304600F0CAFD24E0059880
:1059800000F076FC20E0059803F0C2FC1CE00598CE
:1059900000F05AF818E0059801F018FB14E005989B
:1059A00001F0E4FB10E0237843F0020323700BE0E6
:1059B000059E304603F074F830B1336843F00403B9
:1059C0003360304600F0A4FD104B1B68002B3FF401
:1059D000E8ADFFF753FCE4E50020A3E7B9F1110FB0
:1059E0007FF40AAF71E700209CE700209AE70020CF
:1059F00098E7002096E7002094E7002092E7002037
:105A000090E700208EE700BFC0D30020A0D3002085
:105A100028B1064A137843F0010313707047034B13
:105A20001A786FF300021A70704700BF40D300204D
:105A3000014B1868704700BF9CD30020014B1868C9
:105A4000704700BF84D30020F0B583B00446856959
:105A5000EB7D112B31D0FF2B40F09B80436902A8D6
:105A600040F8043DE6692946FEF720FF022800F0D1
:105A70008180012816D10E3EB6B2330A43EA0626CB
:105A80002E826369C5F81E3000202876687605F1FD
:105A90000E011422FFF742FC030A43EA0020C3432D
:105AA0002B8362E0002865D10199FEF703FE019B7C
:105AB00063612046FEF75AFF57E043690193C669C8
:105AC0002A3E01A82946FEF7F1FE02285ED00128F1
:105AD00041D1238C002B51D0AB84638C6B84B3B247
